{
  "contractName": "LockupFactory",
  "abi": [
    {
      "inputs": [
        {
          "internalType": "address",
          "name": "_stakingToken",
          "type": "address"
        }
      ],
      "stateMutability": "nonpayable",
      "type": "constructor"
    },
    {
      "anonymous": false,
      "inputs": [
        {
          "indexed": true,
          "internalType": "address",
          "name": "previousOwner",
          "type": "address"
        },
        {
          "indexed": true,
          "internalType": "address",
          "name": "newOwner",
          "type": "address"
        }
      ],
      "name": "OwnershipTransferred",
      "type": "event"
    },
    {
      "inputs": [],
      "name": "owner",
      "outputs": [
        {
          "internalType": "address",
          "name": "",
          "type": "address"
        }
      ],
      "stateMutability": "view",
      "type": "function"
    },
    {
      "inputs": [],
      "name": "renounceOwnership",
      "outputs": [],
      "stateMutability": "nonpayable",
      "type": "function"
    },
    {
      "inputs": [
        {
          "internalType": "uint256",
          "name": "",
          "type": "uint256"
        }
      ],
      "name": "stakingPools",
      "outputs": [
        {
          "internalType": "contract StakingWithLockup",
          "name": "",
          "type": "address"
        }
      ],
      "stateMutability": "view",
      "type": "function"
    },
    {
      "inputs": [],
      "name": "stakingToken",
      "outputs": [
        {
          "internalType": "address",
          "name": "",
          "type": "address"
        }
      ],
      "stateMutability": "view",
      "type": "function"
    },
    {
      "inputs": [
        {
          "internalType": "address",
          "name": "newOwner",
          "type": "address"
        }
      ],
      "name": "transferOwnership",
      "outputs": [],
      "stateMutability": "nonpayable",
      "type": "function"
    },
    {
      "inputs": [
        {
          "internalType": "uint256",
          "name": "_stakeDuration",
          "type": "uint256"
        },
        {
          "internalType": "uint256",
          "name": "_maxCapacity",
          "type": "uint256"
        },
        {
          "internalType": "uint256",
          "name": "_rewardRate",
          "type": "uint256"
        }
      ],
      "name": "newStakingPool",
      "outputs": [],
      "stateMutability": "nonpayable",
      "type": "function"
    }
  ],
  "bytecode": "0x608060405234801561001057600080fd5b50604051611dd4380380611dd4833981810160405281019061003291906101c4565b61004e61004361009560201b60201c565b61009d60201b60201c565b80600160006101000a81548173ffffffffffffffffffffffffffffffffffffffff021916908373ffffffffffffffffffffffffffffffffffffffff160217905550506101f1565b600033905090565b60008060009054906101000a900473ffffffffffffffffffffffffffffffffffffffff169050816000806101000a81548173ffffffffffffffffffffffffffffffffffffffff021916908373ffffffffffffffffffffffffffffffffffffffff1602179055508173ffffffffffffffffffffffffffffffffffffffff168173ffffffffffffffffffffffffffffffffffffffff167f8be0079c531659141344cd1fd0a4f28419497f9722a3daafe3b4186f6b6457e060405160405180910390a35050565b600080fd5b600073ffffffffffffffffffffffffffffffffffffffff82169050919050565b600061019182610166565b9050919050565b6101a181610186565b81146101ac57600080fd5b50565b6000815190506101be81610198565b92915050565b6000602082840312156101da576101d9610161565b5b60006101e8848285016101af565b91505092915050565b611bd4806102006000396000f3fe60806040523480156200001157600080fd5b50600436106200006a5760003560e01c80635aad6cf0146200006f578063715018a614620000a557806372f702f314620000b15780638da5cb5b14620000d3578063c541a4e014620000f5578063f2fde38b1462000115575b600080fd5b6200008d6004803603810190620000879190620005c4565b62000135565b6040516200009c919062000681565b60405180910390f35b620000af62000175565b005b620000bb62000206565b604051620000ca9190620006c3565b60405180910390f35b620000dd6200022c565b604051620000ec9190620006c3565b60405180910390f35b6200011360048036038101906200010d9190620006e0565b62000255565b005b6200013360048036038101906200012d91906200076d565b620003a6565b005b600281815481106200014657600080fd5b906000526020600020016000915054906101000a900473ffffffffffffffffffffffffffffffffffffffff1681565b6200017f620004aa565b73ffffffffffffffffffffffffffffffffffffffff166200019f6200022c565b73ffffffffffffffffffffffffffffffffffffffff1614620001f8576040517f08c379a0000000000000000000000000000000000000000000000000000000008152600401620001ef9062000800565b60405180910390fd5b620002046000620004b2565b565b600160009054906101000a900473ffffffffffffffffffffffffffffffffffffffff1681565b60008060009054906101000a900473ffffffffffffffffffffffffffffffffffffffff16905090565b6200025f620004aa565b73ffffffffffffffffffffffffffffffffffffffff166200027f6200022c565b73ffffffffffffffffffffffffffffffffffffffff1614620002d8576040517f08c379a0000000000000000000000000000000000000000000000000000000008152600401620002cf9062000800565b60405180910390fd5b6000600160009054906101000a900473ffffffffffffffffffffffffffffffffffffffff168484846040516200030e9062000576565b6200031d949392919062000833565b604051809103906000f0801580156200033a573d6000803e3d6000fd5b5090506002819080600181540180825580915050600190039060005260206000200160009091909190916101000a81548173ffffffffffffffffffffffffffffffffffffffff021916908373ffffffffffffffffffffffffffffffffffffffff16021790555050505050565b620003b0620004aa565b73ffffffffffffffffffffffffffffffffffffffff16620003d06200022c565b73ffffffffffffffffffffffffffffffffffffffff161462000429576040517f08c379a0000000000000000000000000000000000000000000000000000000008152600401620004209062000800565b60405180910390fd5b600073ffffffffffffffffffffffffffffffffffffffff168173ffffffffffffffffffffffffffffffffffffffff1614156200049c576040517f08c379a00000000000000000000000000000000000000000000000000000000081526004016200049390620008f6565b60405180910390fd5b620004a781620004b2565b50565b600033905090565b60008060009054906101000a900473ffffffffffffffffffffffffffffffffffffffff169050816000806101000a81548173ffffffffffffffffffffffffffffffffffffffff021916908373ffffffffffffffffffffffffffffffffffffffff1602179055508173ffffffffffffffffffffffffffffffffffffffff168173ffffffffffffffffffffffffffffffffffffffff167f8be0079c531659141344cd1fd0a4f28419497f9722a3daafe3b4186f6b6457e060405160405180910390a35050565b611286806200091983390190565b600080fd5b6000819050919050565b6200059e8162000589565b8114620005aa57600080fd5b50565b600081359050620005be8162000593565b92915050565b600060208284031215620005dd57620005dc62000584565b5b6000620005ed84828501620005ad565b91505092915050565b600073ffffffffffffffffffffffffffffffffffffffff82169050919050565b6000819050919050565b6000620006416200063b6200063584620005f6565b62000616565b620005f6565b9050919050565b6000620006558262000620565b9050919050565b6000620006698262000648565b9050919050565b6200067b816200065c565b82525050565b600060208201905062000698600083018462000670565b92915050565b6000620006ab82620005f6565b9050919050565b620006bd816200069e565b82525050565b6000602082019050620006da6000830184620006b2565b92915050565b600080600060608486031215620006fc57620006fb62000584565b5b60006200070c86828701620005ad565b93505060206200071f86828701620005ad565b92505060406200073286828701620005ad565b9150509250925092565b62000747816200069e565b81146200075357600080fd5b50565b60008135905062000767816200073c565b92915050565b60006020828403121562000786576200078562000584565b5b6000620007968482850162000756565b91505092915050565b600082825260208201905092915050565b7f4f776e61626c653a2063616c6c6572206973206e6f7420746865206f776e6572600082015250565b6000620007e86020836200079f565b9150620007f582620007b0565b602082019050919050565b600060208201905081810360008301526200081b81620007d9565b9050919050565b6200082d8162000589565b82525050565b60006080820190506200084a6000830187620006b2565b62000859602083018662000822565b62000868604083018562000822565b62000877606083018462000822565b95945050505050565b7f4f776e61626c653a206e6577206f776e657220697320746865207a65726f206160008201527f6464726573730000000000000000000000000000000000000000000000000000602082015250565b6000620008de6026836200079f565b9150620008eb8262000880565b604082019050919050565b600060208201905081810360008301526200091181620008cf565b905091905056fe60806040523480156200001157600080fd5b506040516200128638038062001286833981810160405281019062000037919062000228565b620000576200004b620000b760201b60201c565b620000bf60201b60201c565b83600160006101000a81548173ffffffffffffffffffffffffffffffffffffffff021916908373ffffffffffffffffffffffffffffffffffffffff160217905550826004819055508160038190555080600281905550505050506200029a565b600033905090565b60008060009054906101000a900473ffffffffffffffffffffffffffffffffffffffff169050816000806101000a81548173ffffffffffffffffffffffffffffffffffffffff021916908373ffffffffffffffffffffffffffffffffffffffff1602179055508173ffffffffffffffffffffffffffffffffffffffff168173ffffffffffffffffffffffffffffffffffffffff167f8be0079c531659141344cd1fd0a4f28419497f9722a3daafe3b4186f6b6457e060405160405180910390a35050565b600080fd5b600073ffffffffffffffffffffffffffffffffffffffff82169050919050565b6000620001b58262000188565b9050919050565b620001c781620001a8565b8114620001d357600080fd5b50565b600081519050620001e781620001bc565b92915050565b6000819050919050565b6200020281620001ed565b81146200020e57600080fd5b50565b6000815190506200022281620001f7565b92915050565b6000806000806080858703121562000245576200024462000183565b5b60006200025587828801620001d6565b9450506020620002688782880162000211565b93505060406200027b8782880162000211565b92505060606200028e8782880162000211565b91505092959194509250565b610fdc80620002aa6000396000f3fe608060405234801561001057600080fd5b50600436106100ea5760003560e01c80637d8820971161008c578063a694fc3a11610066578063a694fc3a14610216578063b945060c14610232578063f170767b1461024e578063f2fde38b1461027e576100ea565b80637d882097146101be5780638da5cb5b146101dc5780639ef3a261146101fa576100ea565b806359b6a0c9116100c857806359b6a0c91461015a578063715018a61461017857806372f702f3146101825780637b0a47ee146101a0576100ea565b80630e76b1ba146100ef5780632e1a7d4d1461012057806340f02ab61461013c575b600080fd5b61010960048036038101906101049190610a96565b61029a565b604051610117929190610ae5565b60405180910390f35b61013a60048036038101906101359190610b0e565b6102cb565b005b61014461046f565b6040516101519190610b3b565b60405180910390f35b610162610475565b60405161016f9190610b3b565b60405180910390f35b61018061047b565b005b61018a610503565b6040516101979190610bb5565b60405180910390f35b6101a8610529565b6040516101b59190610b3b565b60405180910390f35b6101c661052f565b6040516101d39190610b3b565b60405180910390f35b6101e4610535565b6040516101f19190610bdf565b60405180910390f35b610214600480360381019061020f9190610b0e565b61055e565b005b610230600480360381019061022b9190610b0e565b6105e4565b005b61024c60048036038101906102479190610b0e565b61079b565b005b61026860048036038101906102639190610bfa565b610821565b6040516102759190610b3b565b60405180910390f35b61029860048036038101906102939190610bfa565b610839565b005b6007602052816000526040600020602052806000526040600020600091509150508060000154908060010154905082565b6000600760003373ffffffffffffffffffffffffffffffffffffffff1673ffffffffffffffffffffffffffffffffffffffff1681526020019081526020016000206000838152602001908152602001600020604051806040016040529081600082015481526020016001820154815250509050600160009054906101000a900473ffffffffffffffffffffffffffffffffffffffff1673ffffffffffffffffffffffffffffffffffffffff1663a9059cbb33606460025461038c9190610c85565b60016103989190610cb6565b84602001516103a79190610d0c565b6040518363ffffffff1660e01b81526004016103c4929190610d66565b6020604051808303816000875af11580156103e3573d6000803e3d6000fd5b505050506040513d601f19601f820116820180604052508101906104079190610dc7565b50600760003373ffffffffffffffffffffffffffffffffffffffff1673ffffffffffffffffffffffffffffffffffffffff1681526020019081526020016000206000838152602001908152602001600020600080820160009055600182016000905550505050565b60045481565b60035481565b610483610931565b73ffffffffffffffffffffffffffffffffffffffff166104a1610535565b73ffffffffffffffffffffffffffffffffffffffff16146104f7576040517f08c379a00000000000000000000000000000000000000000000000000000000081526004016104ee90610e51565b60405180910390fd5b6105016000610939565b565b600160009054906101000a900473ffffffffffffffffffffffffffffffffffffffff1681565b60025481565b60055481565b60008060009054906101000a900473ffffffffffffffffffffffffffffffffffffffff16905090565b610566610931565b73ffffffffffffffffffffffffffffffffffffffff16610584610535565b73ffffffffffffffffffffffffffffffffffffffff16146105da576040517f08c379a00000000000000000000000000000000000000000000000000000000081526004016105d190610e51565b60405180910390fd5b8060028190555050565b80600560008282546105f69190610cb6565b9250508190555060035460055410610643576040517f08c379a000000000000000000000000000000000000000000000000000000000815260040161063a90610ebd565b60405180910390fd5b600160009054906101000a900473ffffffffffffffffffffffffffffffffffffffff1673ffffffffffffffffffffffffffffffffffffffff166323b872dd3330846040518463ffffffff1660e01b81526004016106a293929190610edd565b6020604051808303816000875af11580156106c1573d6000803e3d6000fd5b505050506040513d601f19601f820116820180604052508101906106e59190610dc7565b506000600760003373ffffffffffffffffffffffffffffffffffffffff1673ffffffffffffffffffffffffffffffffffffffff16815260200190815260200160002060006001600660003373ffffffffffffffffffffffffffffffffffffffff1673ffffffffffffffffffffffffffffffffffffffff168152602001908152602001600020546107759190610cb6565b815260200190815260200160002090504281600001819055508181600101819055505050565b6107a3610931565b73ffffffffffffffffffffffffffffffffffffffff166107c1610535565b73ffffffffffffffffffffffffffffffffffffffff1614610817576040517f08c379a000000000000000000000000000000000000000000000000000000000815260040161080e90610e51565b60405180910390fd5b8060038190555050565b60066020528060005260406000206000915090505481565b610841610931565b73ffffffffffffffffffffffffffffffffffffffff1661085f610535565b73ffffffffffffffffffffffffffffffffffffffff16146108b5576040517f08c379a00000000000000000000000000000000000000000000000000000000081526004016108ac90610e51565b60405180910390fd5b600073ffffffffffffffffffffffffffffffffffffffff168173ffffffffffffffffffffffffffffffffffffffff161415610925576040517f08c379a000000000000000000000000000000000000000000000000000000000815260040161091c90610f86565b60405180910390fd5b61092e81610939565b50565b600033905090565b60008060009054906101000a900473ffffffffffffffffffffffffffffffffffffffff169050816000806101000a81548173ffffffffffffffffffffffffffffffffffffffff021916908373ffffffffffffffffffffffffffffffffffffffff1602179055508173ffffffffffffffffffffffffffffffffffffffff168173ffffffffffffffffffffffffffffffffffffffff167f8be0079c531659141344cd1fd0a4f28419497f9722a3daafe3b4186f6b6457e060405160405180910390a35050565b600080fd5b600073ffffffffffffffffffffffffffffffffffffffff82169050919050565b6000610a2d82610a02565b9050919050565b610a3d81610a22565b8114610a4857600080fd5b50565b600081359050610a5a81610a34565b92915050565b6000819050919050565b610a7381610a60565b8114610a7e57600080fd5b50565b600081359050610a9081610a6a565b92915050565b60008060408385031215610aad57610aac6109fd565b5b6000610abb85828601610a4b565b9250506020610acc85828601610a81565b9150509250929050565b610adf81610a60565b82525050565b6000604082019050610afa6000830185610ad6565b610b076020830184610ad6565b9392505050565b600060208284031215610b2457610b236109fd565b5b6000610b3284828501610a81565b91505092915050565b6000602082019050610b506000830184610ad6565b92915050565b6000819050919050565b6000610b7b610b76610b7184610a02565b610b56565b610a02565b9050919050565b6000610b8d82610b60565b9050919050565b6000610b9f82610b82565b9050919050565b610baf81610b94565b82525050565b6000602082019050610bca6000830184610ba6565b92915050565b610bd981610a22565b82525050565b6000602082019050610bf46000830184610bd0565b92915050565b600060208284031215610c1057610c0f6109fd565b5b6000610c1e84828501610a4b565b91505092915050565b7f4e487b7100000000000000000000000000000000000000000000000000000000600052601260045260246000fd5b7f4e487b7100000000000000000000000000000000000000000000000000000000600052601160045260246000fd5b6000610c9082610a60565b9150610c9b83610a60565b925082610cab57610caa610c27565b5b828204905092915050565b6000610cc182610a60565b9150610ccc83610a60565b9250827fffffffffffffffffffffffffffffffffffffffffffffffffffffffffffffffff03821115610d0157610d00610c56565b5b828201905092915050565b6000610d1782610a60565b9150610d2283610a60565b9250817fffffffffffffffffffffffffffffffffffffffffffffffffffffffffffffffff0483118215151615610d5b57610d5a610c56565b5b828202905092915050565b6000604082019050610d7b6000830185610bd0565b610d886020830184610ad6565b9392505050565b60008115159050919050565b610da481610d8f565b8114610daf57600080fd5b50565b600081519050610dc181610d9b565b92915050565b600060208284031215610ddd57610ddc6109fd565b5b6000610deb84828501610db2565b91505092915050565b600082825260208201905092915050565b7f4f776e61626c653a2063616c6c6572206973206e6f7420746865206f776e6572600082015250565b6000610e3b602083610df4565b9150610e4682610e05565b602082019050919050565b60006020820190508181036000830152610e6a81610e2e565b9050919050565b7f546f74616c206465706f73697473206c696d6974207265616368656400000000600082015250565b6000610ea7601c83610df4565b9150610eb282610e71565b602082019050919050565b60006020820190508181036000830152610ed681610e9a565b9050919050565b6000606082019050610ef26000830186610bd0565b610eff6020830185610bd0565b610f0c6040830184610ad6565b949350505050565b7f4f776e61626c653a206e6577206f776e657220697320746865207a65726f206160008201527f6464726573730000000000000000000000000000000000000000000000000000602082015250565b6000610f70602683610df4565b9150610f7b82610f14565b604082019050919050565b60006020820190508181036000830152610f9f81610f63565b905091905056fea2646970667358221220dc977cb4d9d89c3925be27df01fd87e701a7d0a440f145327852acb7f1dc231564736f6c634300080a0033a26469706673582212207b6a3d90597b8825430bc79afc4bfaf76c56ce1058baac14a30d53008ba56a6f64736f6c634300080a0033",
  "immutableReferences": {},
  "source": "// SPDX-License-Identifier: Apache-2.0\npragma solidity ^0.8.0;\n\nimport { StakingWithLockup } from \"./StakingWithLockup.sol\";\nimport { Ownable } from \"@openzeppelin/contracts/access/Ownable.sol\";\n\ncontract LockupFactory is Ownable {\n\n    address public stakingToken;\n\n    constructor(address _stakingToken) {\n        stakingToken = _stakingToken;\n    }\n\n    StakingWithLockup[] public stakingPools;\n\n    function newStakingPool(\n        uint256 _stakeDuration, // staking duration in sec\n        uint256 _maxCapacity, // max tokens that can be deposited\n        uint256 _rewardRate // % of reward on tokens in staking duration\n    )\n    onlyOwner external\n    {\n        StakingWithLockup pool = new StakingWithLockup(stakingToken, _stakeDuration, _maxCapacity, _rewardRate);\n        stakingPools.push(pool);\n    }\n}",
  "sourcePath": "/home/prasad/Desktop/tranche/staking/contracts/LockupStaking/LockupFactory.sol",
  "compiler": {
    "name": "solc",
    "version": "0.8.10+commit.fc410830.Emscripten.clang"
  },
  "schemaVersion": "3.4.3",
  "updatedAt": "2021-11-10T17:33:54.255Z",
  "devdoc": {
    "kind": "dev",
    "methods": {
      "owner()": {
        "details": "Returns the address of the current owner."
      },
      "renounceOwnership()": {
        "details": "Leaves the contract without owner. It will not be possible to call `onlyOwner` functions anymore. Can only be called by the current owner. NOTE: Renouncing ownership will leave the contract without an owner, thereby removing any functionality that is only available to the owner."
      },
      "transferOwnership(address)": {
        "details": "Transfers ownership of the contract to a new account (`newOwner`). Can only be called by the current owner."
      }
    },
    "version": 1
  },
  "userdoc": {
    "kind": "user",
    "methods": {},
    "version": 1
  }
}